{
  "contractName": "Transaction",
  "abi": [
    {
      "inputs": [
        {
          "internalType": "string",
          "name": "_idTransaction",
          "type": "string"
        },
        {
          "internalType": "contract Actor",
          "name": "_buyer",
          "type": "address"
        },
        {
          "internalType": "contract Actor",
          "name": "_seller",
          "type": "address"
        },
        {
          "internalType": "enum Transaction.TransportType",
          "name": "_transport",
          "type": "uint8"
        },
        {
          "components": [
            {
              "internalType": "string",
              "name": "productId",
              "type": "string"
            },
            {
              "internalType": "address",
              "name": "addressTransaction",
              "type": "address"
            }
          ],
          "internalType": "struct Transaction.Product[]",
          "name": "_productsInput",
          "type": "tuple[]"
        },
        {
          "components": [
            {
              "internalType": "string",
              "name": "productId",
              "type": "string"
            },
            {
              "internalType": "address",
              "name": "addressTransaction",
              "type": "address"
            }
          ],
          "internalType": "struct Transaction.Product[]",
          "name": "_productsOutput",
          "type": "tuple[]"
        }
      ],
      "payable": false,
      "stateMutability": "nonpayable",
      "type": "constructor"
    },
    {
      "constant": true,
      "inputs": [],
      "name": "buyer",
      "outputs": [
        {
          "internalType": "contract Actor",
          "name": "",
          "type": "address"
        }
      ],
      "payable": false,
      "stateMutability": "view",
      "type": "function"
    },
    {
      "constant": true,
      "inputs": [],
      "name": "date",
      "outputs": [
        {
          "internalType": "uint256",
          "name": "",
          "type": "uint256"
        }
      ],
      "payable": false,
      "stateMutability": "view",
      "type": "function"
    },
    {
      "constant": true,
      "inputs": [],
      "name": "idTransaction",
      "outputs": [
        {
          "internalType": "string",
          "name": "",
          "type": "string"
        }
      ],
      "payable": false,
      "stateMutability": "view",
      "type": "function"
    },
    {
      "constant": true,
      "inputs": [],
      "name": "isAccepted",
      "outputs": [
        {
          "internalType": "bool",
          "name": "",
          "type": "bool"
        }
      ],
      "payable": false,
      "stateMutability": "view",
      "type": "function"
    },
    {
      "constant": true,
      "inputs": [],
      "name": "isFinished",
      "outputs": [
        {
          "internalType": "bool",
          "name": "",
          "type": "bool"
        }
      ],
      "payable": false,
      "stateMutability": "view",
      "type": "function"
    },
    {
      "constant": true,
      "inputs": [
        {
          "internalType": "uint256",
          "name": "",
          "type": "uint256"
        }
      ],
      "name": "productsInput",
      "outputs": [
        {
          "internalType": "string",
          "name": "productId",
          "type": "string"
        },
        {
          "internalType": "address",
          "name": "addressTransaction",
          "type": "address"
        }
      ],
      "payable": false,
      "stateMutability": "view",
      "type": "function"
    },
    {
      "constant": true,
      "inputs": [
        {
          "internalType": "uint256",
          "name": "",
          "type": "uint256"
        }
      ],
      "name": "productsOutput",
      "outputs": [
        {
          "internalType": "string",
          "name": "productId",
          "type": "string"
        },
        {
          "internalType": "address",
          "name": "addressTransaction",
          "type": "address"
        }
      ],
      "payable": false,
      "stateMutability": "view",
      "type": "function"
    },
    {
      "constant": true,
      "inputs": [],
      "name": "seller",
      "outputs": [
        {
          "internalType": "contract Actor",
          "name": "",
          "type": "address"
        }
      ],
      "payable": false,
      "stateMutability": "view",
      "type": "function"
    },
    {
      "constant": true,
      "inputs": [],
      "name": "transport",
      "outputs": [
        {
          "internalType": "enum Transaction.TransportType",
          "name": "",
          "type": "uint8"
        }
      ],
      "payable": false,
      "stateMutability": "view",
      "type": "function"
    },
    {
      "constant": false,
      "inputs": [],
      "name": "acceptTransaction",
      "outputs": [],
      "payable": false,
      "stateMutability": "nonpayable",
      "type": "function"
    },
    {
      "constant": false,
      "inputs": [],
      "name": "finishTransaction",
      "outputs": [],
      "payable": false,
      "stateMutability": "nonpayable",
      "type": "function"
    },
    {
      "constant": true,
      "inputs": [],
      "name": "getProductsInput",
      "outputs": [
        {
          "components": [
            {
              "internalType": "string",
              "name": "productId",
              "type": "string"
            },
            {
              "internalType": "address",
              "name": "addressTransaction",
              "type": "address"
            }
          ],
          "internalType": "struct Transaction.Product[]",
          "name": "",
          "type": "tuple[]"
        }
      ],
      "payable": false,
      "stateMutability": "view",
      "type": "function"
    },
    {
      "constant": true,
      "inputs": [],
      "name": "getProductsOutput",
      "outputs": [
        {
          "components": [
            {
              "internalType": "string",
              "name": "productId",
              "type": "string"
            },
            {
              "internalType": "address",
              "name": "addressTransaction",
              "type": "address"
            }
          ],
          "internalType": "struct Transaction.Product[]",
          "name": "",
          "type": "tuple[]"
        }
      ],
      "payable": false,
      "stateMutability": "view",
      "type": "function"
    },
    {
      "constant": true,
      "inputs": [],
      "name": "getTransactionInformations",
      "outputs": [
        {
          "internalType": "string",
          "name": "_id",
          "type": "string"
        },
        {
          "internalType": "address",
          "name": "_buyerAddress",
          "type": "address"
        },
        {
          "internalType": "address",
          "name": "_sellerAddress",
          "type": "address"
        },
        {
          "components": [
            {
              "internalType": "string",
              "name": "productId",
              "type": "string"
            },
            {
              "internalType": "address",
              "name": "addressTransaction",
              "type": "address"
            }
          ],
          "internalType": "struct Transaction.Product[]",
          "name": "_productsInput",
          "type": "tuple[]"
        },
        {
          "components": [
            {
              "internalType": "string",
              "name": "productId",
              "type": "string"
            },
            {
              "internalType": "address",
              "name": "addressTransaction",
              "type": "address"
            }
          ],
          "internalType": "struct Transaction.Product[]",
          "name": "_productsOutput",
          "type": "tuple[]"
        },
        {
          "internalType": "enum Transaction.TransportType",
          "name": "_transport",
          "type": "uint8"
        },
        {
          "internalType": "uint256",
          "name": "_date",
          "type": "uint256"
        },
        {
          "internalType": "bool",
          "name": "_isFinished",
          "type": "bool"
        },
        {
          "internalType": "bool",
          "name": "_isAccepted",
          "type": "bool"
        }
      ],
      "payable": false,
      "stateMutability": "view",
      "type": "function"
    }
  ],
  "bytecode": "0x60806040523480156200001157600080fd5b5060405162001be438038062001be48339818101604052620000379190810190620005ef565b85600090805190602001906200004f929190620002d3565b5083600260006101000a81548173ffffffffffffffffffffffffffffffffffffffff021916908373ffffffffffffffffffffffffffffffffffffffff16021790555084600160006101000a81548173ffffffffffffffffffffffffffffffffffffffff021916908373ffffffffffffffffffffffffffffffffffffffff1602179055504260038190555082600460006101000a81548160ff02191690836004811115620000f857fe5b021790555060008090505b8251811015620001c65760058382815181106200011c57fe5b60200260200101519080600181540180825580915050906001820390600052602060002090600202016000909192909190915060008201518160000190805190602001906200016d9291906200035a565b5060208201518160010160006101000a81548173ffffffffffffffffffffffffffffffffffffffff021916908373ffffffffffffffffffffffffffffffffffffffff160217905550505050808060010191505062000103565b5060008090505b815181101562000290576006828281518110620001e657fe5b6020026020010151908060018154018082558091505090600182039060005260206000209060020201600090919290919091506000820151816000019080519060200190620002379291906200035a565b5060208201518160010160006101000a81548173ffffffffffffffffffffffffffffffffffffffff021916908373ffffffffffffffffffffffffffffffffffffffff1602179055505050508080600101915050620001cd565b506000600760006101000a81548160ff0219169083151502179055506000600760016101000a81548160ff02191690831515021790555050505050505062000844565b828054600181600116156101000203166002900490600052602060002090601f016020900481019282601f106200031657805160ff191683800117855562000347565b8280016001018555821562000347579182015b828111156200034657825182559160200191906001019062000329565b5b509050620003569190620003e1565b5090565b828054600181600116156101000203166002900490600052602060002090601f016020900481019282601f106200039d57805160ff1916838001178555620003ce565b82800160010185558215620003ce579182015b82811115620003cd578251825591602001919060010190620003b0565b5b509050620003dd9190620003e1565b5090565b6200040691905b8082111562000402576000816000905550600101620003e8565b5090565b90565b6000815190506200041a81620007ff565b92915050565b600082601f8301126200043257600080fd5b8151620004496200044382620006fe565b620006d0565b9150818183526020840193506020810190508360005b8381101562000493578151860162000478888262000583565b8452602084019350602083019250506001810190506200045f565b5050505092915050565b600081519050620004ae8162000819565b92915050565b600081519050620004c58162000833565b92915050565b600082601f830112620004dd57600080fd5b8151620004f4620004ee8262000727565b620006d0565b915080825260208301602083018583830111156200051157600080fd5b6200051e838284620007c9565b50505092915050565b600082601f8301126200053957600080fd5b8151620005506200054a8262000754565b620006d0565b915080825260208301602083018583830111156200056d57600080fd5b6200057a838284620007c9565b50505092915050565b6000604082840312156200059657600080fd5b620005a26040620006d0565b9050600082015167ffffffffffffffff811115620005bf57600080fd5b620005cd84828501620004cb565b6000830152506020620005e38482850162000409565b60208301525092915050565b60008060008060008060c087890312156200060957600080fd5b600087015167ffffffffffffffff8111156200062457600080fd5b6200063289828a0162000527565b96505060206200064589828a016200049d565b95505060406200065889828a016200049d565b94505060606200066b89828a01620004b4565b935050608087015167ffffffffffffffff8111156200068957600080fd5b6200069789828a0162000420565b92505060a087015167ffffffffffffffff811115620006b557600080fd5b620006c389828a0162000420565b9150509295509295509295565b6000604051905081810181811067ffffffffffffffff82111715620006f457600080fd5b8060405250919050565b600067ffffffffffffffff8211156200071657600080fd5b602082029050602081019050919050565b600067ffffffffffffffff8211156200073f57600080fd5b601f19601f8301169050602081019050919050565b600067ffffffffffffffff8211156200076c57600080fd5b601f19601f8301169050602081019050919050565b60006200078e82620007a9565b9050919050565b6000620007a28262000781565b9050919050565b600073ffffffffffffffffffffffffffffffffffffffff82169050919050565b60005b83811015620007e9578082015181840152602081019050620007cc565b83811115620007f9576000848401525b50505050565b6200080a8162000781565b81146200081657600080fd5b50565b620008248162000795565b81146200083057600080fd5b50565b600581106200084157600080fd5b50565b61139080620008546000396000f3fe608060405234801561001057600080fd5b50600436106100ea5760003560e01c8063651076161161008c5780637db34768116100665780637db347681461022d5780639923c65814610253578063b90be96614610271578063f6b6e4f31461028f576100ea565b806365107616146101c05780637150d8ae146101f15780637b3529621461020f576100ea565b8063323046b1116100c8578063323046b1146101355780635051a5ec1461015357806355c720aa146101715780635817bcd7146101a2576100ea565b806302afc23f146100ef57806308551a53146100f95780632cf87b1314610117575b600080fd5b6100f7610299565b005b61010161038a565b60405161010e9190611087565b60405180910390f35b61011f6103b0565b60405161012c91906110a2565b60405180910390f35b61013d6103c3565b60405161014a91906111b1565b60405180910390f35b61015b6103c9565b604051610168919061106c565b60405180910390f35b61018b60048036036101869190810190610e56565b6103dc565b604051610199929190611181565b60405180910390f35b6101aa6104c5565b6040516101b7919061104a565b60405180910390f35b6101da60048036036101d59190810190610e56565b61061c565b6040516101e8929190611181565b60405180910390f35b6101f9610705565b6040516102069190611087565b60405180910390f35b61021761072b565b604051610224919061106c565b60405180910390f35b61023561073e565b60405161024a999897969594939291906110df565b60405180910390f35b61025b610b1d565b604051610268919061104a565b60405180910390f35b610279610c74565b60405161028691906110bd565b60405180910390f35b610297610d12565b005b600160009054906101000a900473ffffffffffffffffffffffffffffffffffffffff1673ffffffffffffffffffffffffffffffffffffffff16638da5cb5b6040518163ffffffff1660e01b815260040160206040518083038186803b15801561030157600080fd5b505afa158015610315573d6000803e3d6000fd5b505050506040513d601f19601f820116820180604052506103399190810190610e2d565b73ffffffffffffffffffffffffffffffffffffffff163373ffffffffffffffffffffffffffffffffffffffff161415610388576001600760006101000a81548160ff0219169083151502179055505b565b600260009054906101000a900473ffffffffffffffffffffffffffffffffffffffff1681565b600460009054906101000a900460ff1681565b60035481565b600760019054906101000a900460ff1681565b600681815481106103e957fe5b9060005260206000209060020201600091509050806000018054600181600116156101000203166002900480601f0160208091040260200160405190810160405280929190818152602001828054600181600116156101000203166002900480156104955780601f1061046a57610100808354040283529160200191610495565b820191906000526020600020905b81548152906001019060200180831161047857829003601f168201915b5050505050908060010160009054906101000a900473ffffffffffffffffffffffffffffffffffffffff16905082565b60606006805480602002602001604051908101604052809291908181526020016000905b828210156106135783829060005260206000209060020201604051806040016040529081600082018054600181600116156101000203166002900480601f0160208091040260200160405190810160405280929190818152602001828054600181600116156101000203166002900480156105a55780601f1061057a576101008083540402835291602001916105a5565b820191906000526020600020905b81548152906001019060200180831161058857829003601f168201915b505050505081526020016001820160009054906101000a900473ffffffffffffffffffffffffffffffffffffffff1673ffffffffffffffffffffffffffffffffffffffff1673ffffffffffffffffffffffffffffffffffffffff1681525050815260200190600101906104e9565b50505050905090565b6005818154811061062957fe5b9060005260206000209060020201600091509050806000018054600181600116156101000203166002900480601f0160208091040260200160405190810160405280929190818152602001828054600181600116156101000203166002900480156106d55780601f106106aa576101008083540402835291602001916106d5565b820191906000526020600020905b8154815290600101906020018083116106b857829003601f168201915b5050505050908060010160009054906101000a900473ffffffffffffffffffffffffffffffffffffffff16905082565b600160009054906101000a900473ffffffffffffffffffffffffffffffffffffffff1681565b600760009054906101000a900460ff1681565b606060008060608060008060008060008054600181600116156101000203166002900480601f0160208091040260200160405190810160405280929190818152602001828054600181600116156101000203166002900480156107e25780601f106107b7576101008083540402835291602001916107e2565b820191906000526020600020905b8154815290600101906020018083116107c557829003601f168201915b50505050509850600160009054906101000a900473ffffffffffffffffffffffffffffffffffffffff169750600260009054906101000a900473ffffffffffffffffffffffffffffffffffffffff1696506005805480602002602001604051908101604052809291908181526020016000905b8282101561097f5783829060005260206000209060020201604051806040016040529081600082018054600181600116156101000203166002900480601f0160208091040260200160405190810160405280929190818152602001828054600181600116156101000203166002900480156109115780601f106108e657610100808354040283529160200191610911565b820191906000526020600020905b8154815290600101906020018083116108f457829003601f168201915b505050505081526020016001820160009054906101000a900473ffffffffffffffffffffffffffffffffffffffff1673ffffffffffffffffffffffffffffffffffffffff1673ffffffffffffffffffffffffffffffffffffffff168152505081526020019060010190610855565b5050505095506006805480602002602001604051908101604052809291908181526020016000905b82821015610ad15783829060005260206000209060020201604051806040016040529081600082018054600181600116156101000203166002900480601f016020809104026020016040519081016040528092919081815260200182805460018160011615610100020316600290048015610a635780601f10610a3857610100808354040283529160200191610a63565b820191906000526020600020905b815481529060010190602001808311610a4657829003601f168201915b505050505081526020016001820160009054906101000a900473ffffffffffffffffffffffffffffffffffffffff1673ffffffffffffffffffffffffffffffffffffffff1673ffffffffffffffffffffffffffffffffffffffff1681525050815260200190600101906109a7565b505050509450600460009054906101000a900460ff1693506003549250600760009054906101000a900460ff169150600760019054906101000a900460ff169050909192939495969798565b60606005805480602002602001604051908101604052809291908181526020016000905b82821015610c6b5783829060005260206000209060020201604051806040016040529081600082018054600181600116156101000203166002900480601f016020809104026020016040519081016040528092919081815260200182805460018160011615610100020316600290048015610bfd5780601f10610bd257610100808354040283529160200191610bfd565b820191906000526020600020905b815481529060010190602001808311610be057829003601f168201915b505050505081526020016001820160009054906101000a900473ffffffffffffffffffffffffffffffffffffffff1673ffffffffffffffffffffffffffffffffffffffff1673ffffffffffffffffffffffffffffffffffffffff168152505081526020019060010190610b41565b50505050905090565b60008054600181600116156101000203166002900480601f016020809104026020016040519081016040528092919081815260200182805460018160011615610100020316600290048015610d0a5780601f10610cdf57610100808354040283529160200191610d0a565b820191906000526020600020905b815481529060010190602001808311610ced57829003601f168201915b505050505081565b600160009054906101000a900473ffffffffffffffffffffffffffffffffffffffff1673ffffffffffffffffffffffffffffffffffffffff16638da5cb5b6040518163ffffffff1660e01b815260040160206040518083038186803b158015610d7a57600080fd5b505afa158015610d8e573d6000803e3d6000fd5b505050506040513d601f19601f82011682018060405250610db29190810190610e2d565b73ffffffffffffffffffffffffffffffffffffffff163373ffffffffffffffffffffffffffffffffffffffff161415610e01576001600760016101000a81548160ff0219169083151502179055505b565b600081519050610e128161131f565b92915050565b600081359050610e2781611336565b92915050565b600060208284031215610e3f57600080fd5b6000610e4d84828501610e03565b91505092915050565b600060208284031215610e6857600080fd5b6000610e7684828501610e18565b91505092915050565b6000610e8b8383610ffe565b905092915050565b610e9c8161123d565b82525050565b610eab8161123d565b82525050565b6000610ebc826111dc565b610ec6818561120a565b935083602082028501610ed8856111cc565b8060005b85811015610f145784840389528151610ef58582610e7f565b9450610f00836111fd565b925060208a01995050600181019050610edc565b50829750879550505050505092915050565b610f2f8161124f565b82525050565b610f3e81611298565b82525050565b610f4d816112bc565b82525050565b6000610f5e826111f2565b610f68818561122c565b9350610f788185602086016112ce565b610f8181611301565b840191505092915050565b6000610f97826111e7565b610fa1818561121b565b9350610fb18185602086016112ce565b610fba81611301565b840191505092915050565b6000610fd0826111e7565b610fda818561122c565b9350610fea8185602086016112ce565b610ff381611301565b840191505092915050565b6000604083016000830151848203600086015261101b8282610f8c565b91505060208301516110306020860182610e93565b508091505092915050565b6110448161128e565b82525050565b600060208201905081810360008301526110648184610eb1565b905092915050565b60006020820190506110816000830184610f26565b92915050565b600060208201905061109c6000830184610f35565b92915050565b60006020820190506110b76000830184610f44565b92915050565b600060208201905081810360008301526110d78184610fc5565b905092915050565b60006101208201905081810360008301526110fa818c610f53565b9050611109602083018b610ea2565b611116604083018a610ea2565b81810360608301526111288189610eb1565b9050818103608083015261113c8188610eb1565b905061114b60a0830187610f44565b61115860c083018661103b565b61116560e0830185610f26565b611173610100830184610f26565b9a9950505050505050505050565b6000604082019050818103600083015261119b8185610fc5565b90506111aa6020830184610ea2565b9392505050565b60006020820190506111c6600083018461103b565b92915050565b6000819050602082019050919050565b600081519050919050565b600081519050919050565b600081519050919050565b6000602082019050919050565b600082825260208201905092915050565b600082825260208201905092915050565b600082825260208201905092915050565b60006112488261126e565b9050919050565b60008115159050919050565b600081905061126982611312565b919050565b600073ffffffffffffffffffffffffffffffffffffffff82169050919050565b6000819050919050565b60006112a3826112aa565b9050919050565b60006112b58261126e565b9050919050565b60006112c78261125b565b9050919050565b60005b838110156112ec5780820151818401526020810190506112d1565b838111156112fb576000848401525b50505050565b6000601f19601f8301169050919050565b6005811061131c57fe5b50565b6113288161123d565b811461133357600080fd5b50565b61133f8161128e565b811461134a57600080fd5b5056fea365627a7a7231582083e1fd5d6306e907a5980690557b99fa33d4996fd812f0810a7c46340cc830da6c6578706572696d656e74616cf564736f6c63430005100040",
  "source": "pragma solidity >=0.4.22 <0.9.0;\n\npragma experimental ABIEncoderV2;\n\ncontract Actor {\n    string public id;\n    string public name;\n    string public actorType;\n    string public latitude;\n    string public longitude;\n    address public owner;\n\n    constructor(\n        string memory _id,\n        string memory _name,\n        string memory _actorType,\n        string memory _latitude,\n        string memory _longitude\n    ) public {\n        id = _id;\n        name = _name;\n        actorType = _actorType;\n        latitude = _latitude;\n        longitude = _longitude;\n        owner = msg.sender;\n    }\n\n    event TransactionCreated(address _address);\n\n    function createTransaction(\n        Transaction.Product[] memory _productsInput,\n        Transaction.Product[] memory _productsOutput,\n        Actor _buyer,\n        string memory _idTransaction,\n        Transaction.TransportType _transport\n    ) public {\n        require(msg.sender == owner, \"Only the actor can create a transaction\");\n\n        Transaction newTransaction =\n            new Transaction(\n                _idTransaction,\n                _buyer,\n                this,\n                _transport,\n                _productsInput,\n                _productsOutput\n            );\n        emit TransactionCreated(address(newTransaction));\n    }\n\n    function getActorInformations()\n        external\n        view\n        returns (\n            string memory _id,\n            string memory _name,\n            string memory _actorType,\n            string memory _latitude,\n            string memory _longitude\n        )\n    {\n        _id = id;\n        _name = name;\n        _actorType = actorType;\n        _latitude = latitude;\n        _longitude = longitude;\n    }\n}\n\ncontract Transaction {\n    enum TransportType {Plane, Train, Boat, Truck, Charette}\n\n    struct Product {\n        string productId;\n        address addressTransaction;\n    }\n\n    string public idTransaction;\n    Actor public buyer;\n    Actor public seller;\n    uint256 public date;\n    TransportType public transport;\n    Product[] public productsInput;\n    Product[] public productsOutput;\n    bool public isFinished;\n    bool public isAccepted;\n\n    constructor(\n        string memory _idTransaction,\n        Actor _buyer,\n        Actor _seller,\n        TransportType _transport,\n        Product[] memory _productsInput,\n        Product[] memory _productsOutput\n    ) public {\n        idTransaction = _idTransaction;\n        seller = _seller;\n        buyer = _buyer;\n        date = block.timestamp;\n        transport = _transport;\n        for (uint256 index = 0; index < _productsInput.length; index++) {\n            productsInput.push(_productsInput[index]);\n        }\n        for (uint256 index = 0; index < _productsOutput.length; index++) {\n            productsOutput.push(_productsOutput[index]);\n        }\n        isFinished = false;\n        isAccepted = false;\n    }\n\n    function acceptTransaction() external {\n        if (msg.sender == buyer.owner()) {\n            isAccepted = true;\n        }\n    }\n\n    function finishTransaction() external {\n        if (msg.sender == buyer.owner()) {\n            isFinished = true;\n        }\n    }\n\n    function getProductsInput() external view returns (Product[] memory) {\n        return productsInput;\n    }\n\n    function getProductsOutput() external view returns (Product[] memory) {\n        return productsOutput;\n    }\n\n    function getTransactionInformations()\n        external\n        view\n        returns (\n            string memory _id,\n            address _buyerAddress,\n            address _sellerAddress,\n            Product[] memory _productsInput,\n            Product[] memory _productsOutput,\n            TransportType _transport,\n            uint256 _date,\n            bool _isFinished,\n            bool _isAccepted\n        )\n    {\n        _id = idTransaction;\n        _buyerAddress = address(buyer);\n        _sellerAddress = address(seller);\n        _productsInput = productsInput;\n        _productsOutput = productsOutput;\n        _transport = transport;\n        _date = date;\n        _isFinished = isFinished;\n        _isAccepted = isAccepted;\n    }\n}\n",
  "sourcePath": "/Users/louisrob/Documents/Business/4IF/lowympact/lowympact-blockchain/contracts/Lowympact.sol",
  "compiler": {
    "name": "solc",
    "version": "0.5.16+commit.9c3226ce.Emscripten.clang"
  },
  "schemaVersion": "3.3.3",
  "updatedAt": "2021-05-01T12:56:12.511Z",
  "devdoc": {
    "methods": {}
  },
  "userdoc": {
    "methods": {}
  }
}